{
  "address": "0x5FbDB2315678afecb367f032d93F642f64180aa3",
  "abi": [
    {
      "anonymous": false,
      "inputs": [
        {
          "indexed": false,
          "internalType": "uint256",
          "name": "newNumber",
          "type": "uint256"
        }
      ],
      "name": "NumberStored",
      "type": "event"
    },
    {
      "inputs": [],
      "name": "getNumber",
      "outputs": [
        {
          "internalType": "uint256",
          "name": "",
          "type": "uint256"
        }
      ],
      "stateMutability": "view",
      "type": "function"
    },
    {
      "inputs": [
        {
          "internalType": "uint256",
          "name": "_number",
          "type": "uint256"
        }
      ],
      "name": "setNumber",
      "outputs": [],
      "stateMutability": "nonpayable",
      "type": "function"
    }
  ],
  "transactionHash": "0xcd1ae41e37e374663474e64d5cfcae5bd70dfd34ad3979cf4484c6d3ad261e96",
  "args": [],
  "numDeployments": 1,
  "solcInputHash": "932955066ca280377164ae05f47c5b27",
  "bytecode": "0x6080604052348015600f57600080fd5b506101878061001f6000396000f3fe608060405234801561001057600080fd5b50600436106100365760003560e01c80633fb5c1cb1461003b578063f2c9ecd814610057575b600080fd5b610055600480360381019061005091906100fa565b610075565b005b61005f6100b6565b60405161006c9190610136565b60405180910390f35b806000819055507f3564ffb2fd8f93d7b0e9d1173ffdff5ee9775d860bfe82eaca0d0dbe07c8b634816040516100ab9190610136565b60405180910390a150565b60008054905090565b600080fd5b6000819050919050565b6100d7816100c4565b81146100e257600080fd5b50565b6000813590506100f4816100ce565b92915050565b6000602082840312156101105761010f6100bf565b5b600061011e848285016100e5565b91505092915050565b610130816100c4565b82525050565b600060208201905061014b6000830184610127565b9291505056fea2646970667358221220ac24fd6fb14e5e94764ada06f4c4c92f248ef75338af63cf4a5e22d3c0f9d13f64736f6c634300081c0033",
  "devdoc": {
    "kind": "dev",
    "methods": {},
    "version": 1
  },
  "userdoc": {
    "kind": "user",
    "methods": {},
    "version": 1
  },
  "storageLayout": {
    "storage": [
      {
        "astId": 3,
        "contract": "contracts/SimpleStorage.sol:SimpleStorage",
        "label": "storedNumber",
        "offset": 0,
        "slot": "0",
        "type": "t_uint256"
      }
    ],
    "types": {
      "t_uint256": {
        "encoding": "inplace",
        "label": "uint256",
        "numberOfBytes": "32"
      }
    }
  }
}